:020000040800F2
:1000000098090020ED010008EB1F0008251A0008E0
:10001000731F0008C3150008DD2C00080000000055
:10002000000000000000000000000000E5210008C2
:100030006116000800000000652000084123000848
:10004000070200080702000807020008070200086C
:10005000070200080702000807020008070200085C
:10006000070200080702000807020008070200084C
:10007000070200080702000807020008070200083C
:10008000070200080702000807020008070200082C
:1000900007020008070200080702000865160008AA
:1000A000070200080702000807020008070200080C
:1000B00007020008070200080702000807020008FC
:1000C00007020008070200080702000807020008EC
:1000D00007020008DD2A000807020008412B00087B
:1000E00007020008070200080702000807020008CC
:1000F00007020008070200080702000807020008BC
:1001000007020008070200080702000807020008AB
:10011000070200080702000875250008A525000849
:10012000070200080702000807020008070200088B
:1001300000F002F800F04AF80AA090E8000C8244AF
:100140008344AAF10107DA4501D100F03FF8AFF28C
:10015000090EBAE80F0013F0010F18BFFB1A43F0A5
:10016000010318472073000040730000103A24BFB9
:1001700078C878C1FAD8520724BF30C830C144BF0C
:1001800004680C607047000000230024002500264E
:10019000103A28BF78C1FBD8520728BF30C148BFEA
:1001A0000B607047662906F0B481642900F0708006
:1001B000002070471FB500F097FC040000200021CC
:1001C00005F04AF9E0601FBD10B510BD00F0D0FD8C
:1001D0001146FFF7EFFF04F0C7F800F0EEFD03B49F
:1001E000FFF7F2FF03BC02F0FEFD00000948804764
:1001F00009480047FEE7FEE7FEE7FEE7FEE7FEE709
:10020000FEE7FEE7FEE7FEE704480549054A064B20
:1002100070470000452300083101000898030020C2
:10022000980900209805002098050020704710B517
:100230004C1084EA530404D54042C1F1000138BF98
:10024000491E1B4204D55242C3F1000338BF5B1E56
:1002500000F02EF914F0804F04D04042C1F10001AB
:1002600038BF491E14F0004F04D05242C3F10003BE
:1002700038BF5B1E10BD00000FB4044910B503AABF
:10028000029800F0FDFB10BC5DF814FBA4000020F8
:100290002DE9F0410646002410687529314616A55F
:1002A00010D0AFF30080002802DA404213A507E027
:1002B00031688A0701D512A502E0490704D511A5C6
:1002C000012401E0AFF3008000210A2206F1240797
:1002D00009E0B0FBF2FCB0FBF2F302FB1C00303093
:1002E00078541846491C0028F3D123462A46304644
:1002F000BDE8F04100F05EB9000000002D000000F4
:100300002B000000200000002DE9F05F8946044624
:100310004FF0000ADFF824B1FB44C0F820A02046CB
:10032000E168884700287DD0252806D0D4E901213E
:100330009047206A401C2062F1E700255F46204676
:10034000E16888472028064607DB312E05D2B81918
:1003500010F8200C08B10543F1E7A80701D525F0F6
:100360000405C4F81CA00027C4F818A02A2E09D040
:10037000304602F031FD38B304EB8708303EC8F850
:10038000186019E059F8041B204604EB87029161BC
:10039000E1688847012F064618D1E069002820DA75
:1003A00025F020051DE0D8F8180000EB800006EBD2
:1003B00040003038C8F818002046E16888470646F3
:1003C00002F00AFD0028EED1012F0AD02E2E08D10E
:1003D0002046E16888477F1C0646022F45F020052D
:1003E000C4DBA069002803DA404245F00105A061A2
:1003F000E80701D025F01005A6B1A6F141001928A3
:1004000002D8203645F400654A463146204625602C
:100410004D46FFF7C7FE60B1012807D0ED1D25F05E
:10042000070000E007E000F1080978E705F104099A
:1004300075E730467AE7206ABDE8F09F7E6F0000DE
:1004400040EA010310B59B070FD1042A0DD310C851
:1004500008C9121F9C42F8D020BA19BA884201D9A3
:10046000012010BD4FF0FF3010BD1AB1D30703D0EB
:10047000521C07E0002010BD10F8013B11F8014BA1
:100480001B1B07D110F8013B11F8014B1B1B01D1BD
:10049000921EF1D1184610BD02F0FF0343EA032279
:1004A00042EA024200F000BB704770477047704755
:1004B00053EA020C00F069802DE9F04B4FF0000682
:1004C000002B1FBFB3FA83F503FA05F424FA05F6EF
:1004D0005E4012BF1643B2FA82F502FA05F4C5F186
:1004E00020051EBF22FA05FC44EA0C04203556EA1A
:1004F000044C4FEA144418BF641C4FF000084FF03E
:100500000009904271EB030C39D3002919BFB1FAED
:1005100081F701FA07F6B0FA80F700FA07F6C7F19B
:1005200020071EBF20FA07FC46EA0C062037B6FB60
:10053000F4FCA7EB0507103F07F01F0BCBF12006DB
:100540000CFA0BFB2CFA06F644BFB3460026202F0C
:10055000A4BF5E464FF0000B5BEA060C08BF4FF0ED
:10056000010B19EB0B09ABFB027C48EB0608C01B27
:1005700006FB02CC0BFB03CC71EB0C01C1E70B4675
:10058000024641464846BDE8F08B13B54FF00000E7
:100590004FF00001AFF30080BDE81C40704710B57C
:1005A00000F0A6FA006810BD10B5044600F0A0FAED
:1005B000046010BD2DE9F0470D4699469246044669
:1005C00000F124080168880604D5E06921F01001D3
:1005D000216000E00120A84201DD471B00E0002768
:1005E000A1697A1902EB0900081AA0612078C006F7
:1005F00002D42046AFF30080002608E0D4E90121B0
:100600001AF806009047206A401C761C20624E456E
:10061000F4DB2078C0060AD52046AFF3008006E060
:10062000D4E9012130209047206A401C2062381E06
:10063000A7F10107F4DC07E0D4E9012118F805006F
:100640009047206A401C2062281EA5F10105F3DCBA
:100650002046AFF300802078000602D50220BDE8D6
:10066000F0870120FBE770472DE9FF4F0C461E463F
:100670004FF0FF378BB0D2E90001DDF860800A90BF
:100680008A46C1F30A5505B93D46002108464FF098
:100690000000BAF1000F00F4400005DA00EB800022
:1006A0004FF4400101EA50004FEA9059B9F1010FAF
:1006B00000DDB9460A9850EA4A000ED044F61050C0
:1006C000A5F2FF3545432F14B8F1000F1ED0754237
:1006D000291E1EDDC9F100021CE0B8F1010F4FF028
:1006E000000001D0302103E0F24305E02154401C1A
:1006F000B042FBDB30460022002121540B99C1F8A7
:100700000880C1E900200FB0BDE8F08FBD1B6D1C53
:10071000DEE74A4600DA694206A800F08BFA06AB2B
:1007200093E8070003AB83E8070050460A9900F0FE
:100730008DFB8DE80700A0F500501F38009003984E
:10074000002D09DD42F21F014A46084403A9039027
:10075000684600F0ECFD08E0A0F500504A461F385E
:1007600003A90390684600F0F6FD8DE80700000439
:10077000000C03D04FF0FF30410800E01046B8F104
:10078000000F03D00022009215461EE0751E05D40E
:1007900000F0B2F9303262556D1EF9D5B346012230
:1007A000084302D000227F1C04E02078302801D1C9
:1007B00000227F1E002A099786D01DE0112D07DA3E
:1007C00000F09AF9303262556D1C50EA0102F5D101
:1007D000084302D00098C8B10EE00021681E05E071
:1007E000235C625C63542254401E491C8142F7DB47
:1007F000AB46A81B401E0990002004F80B000B9884
:10080000099AC0F80880C0E9002B7CE711264FF058
:10081000000859E72DE9F04F88460446D21D22F022
:10082000070191B0D1E90001CDE90A0102F057FAC0
:1008300002460B98C00F01D02D2007E020688107E9
:1008400001D52B2002E0202101EAC000032A0990F3
:1008500001D0072A05DB03464146204600F0AAF9ED
:100860000BE12078800601D5E06900E00620B8F1B0
:10087000650F814606D0B8F1660F18D0B8F1670F42
:1008800070D131E00020B9F1110F009001DB11238C
:1008900001E009F101030AAA01A90CA8FFF7E4FE8F
:1008A000DDE90C70002609F10105834647E00120CF
:1008B0004B4600904FF000470AAA01A90CA8FFF789
:1008C000D3FEDDE90DB00C995D46002610B909F1A3
:1008D00001000D18B9EB050003D4C0F1FF3609F192
:1008E0000105A5EB09002BE0B9F1010F01DA4FF08A
:1008F00001090020B9F1110F0090484601DD1123D4
:1009000000E003460AAA01A90CA8FFF7ADFEDDE945
:100910000C704D4600268346207800070AD4AB456C
:1009200000DA5D4601A8012D04DD411911F8011C12
:10093000302907D04F4502DA17F1040F04DA0120FD
:1009400082460FE06D1EEEE7002F02DCED1B3E44F9
:1009500003E0781CA84200DD7D1CB81B00F1010AF1
:100960004FF000472078000703D4AA4501DB4FF081
:10097000FF3A0021B7F1004F0DF143088DF8431005
:1009800024D002202B23002F01DA7F422D230A21BD
:10099000021EA0F1010000DC5FB197FBF1FC97FBA8
:1009A000F1F201FB1C7C17460CF1300C08F801CD6C
:1009B000EEE7A8F1010003702188090501D5452162
:1009C00000E06521A0F1010800F8011C09980FA9B9
:1009D000A1EB0807FF1D00B10120411901EBEA70EE
:1009E000A1693844081A401EA0612078C00602D4CC
:1009F0002046AFF30080099828B1D4E9012190473F
:100A0000206A401C20622078C00622D52046AFF321
:100A100000801EE0002E04DBB34502DD01A8805DEE
:100A200000E03020D4E901219047206A401C206278
:100A3000761CAAF101005FEA000A0AD100F054F81E
:100A4000C0680168405CD4E901219047206A401CDD
:100A50002062281EA5F10105DCDC07E0D4E90121B4
:100A600018F8010B9047206A401C2062381EA7F13D
:100A70000107F3DC2046AFF30080032011B043E60A
:100A8000074B70B50D467B4400F081F804462846BC
:100A900000F03EF910B14FF0FF3070BD204670BD40
:100AA000C73300004FF000020429C0F0128010F09C
:100AB000030C00F03381CCF1040CBCF1020F18BF21
:100AC00000F8012BA8BF20F8022BA1EB0C0100F0CD
:100AD00025B95FEAC17C24BF00F8012B00F8012B87
:100AE00048BF00F8012B70470048704758030020AA
:100AF000004870473803002030B5B0F10A024FEAD1
:100B0000900E71F100034EEA817EB0EB0E0061EBB6
:100B100091014FEA101E4EEA017E10EB0E0041EBF0
:100B200011114FEA102E4EEA016E10EB0E0041EB50
:100B300011214FEA104E4EEA014E10EB0E0041EB30
:100B40001141401841F100014FEAD00040EA4170E4
:100B50004FEAD10110EB80054FEA810444EA90741A
:100B600044EB01046D1944EB0404521BA3414FF004
:100B7000000348BF0A3200D530BD401C41F10001DE
:100B800030BD000001694A1C02610878704700B559
:100B90008FB0CDE901310021059105497944CDE9B6
:100BA000031011466846FFF7AFFB0FB000BD000011
:100BB000E5FFFFFF2DE9F0411F46044603260168CB
:100BC000072A01F4006004DB08B116A505E016A5AC
:100BD00003E008B115A500E015A521F01000206084
:100BE000A069C01EA0610FB1401EA0612046AFF3F6
:100BF00000804FB1D4E9012138469047206A401C5B
:100C00002062C01C206206E0206AFAE7D4E90121D4
:100C100015F8010B9047761EF8D22046AFF30080FE
:100C2000BDE8F0814E414E006E616E00494E4600B7
:100C3000696E66002DE9F047814616468AB0334852
:100C400078440DC88DE80D0030487844801C03AC12
:100C50000DC884E80D0041F69B300844372190FB15
:100C6000F1F290FBF1F5A5F1800501FB12041B3CAC
:100C700002D56442012000E00020DFF890A0804609
:100C80000027FA44AAF1BE0A0DE0E00709D0324677
:100C9000684607EB47010AEB810100F05CFB8DE839
:100CA000070064107F1C002CEFD1184F7F44AC3F2D
:100CB00018E0E80714D007EB04100DF1180A90E8CB
:100CC0000E008AE80E00C068F04201D19819089021
:100CD000324606A903A800F03EFB03AB83E80700F9
:100CE0006D10641C002DE4D132466946B8F1000F46
:100CF00003A802D000F01BFB01E000F02CFBC9E9C7
:100D00000001C9F808200AB0BDE8F087D8670000E4
:100D1000007B00F0800070474FF0000200B51346E2
:100D200094469646203922BFA0E80C50A0E80C500B
:100D3000B1F12001BFF4F7AF090728BFA0E80C50BC
:100D400048BF0CC05DF804EB890028BF40F8042BB5
:100D500008BF704748BF20F8022B11F0804F18BF22
:100D600000F8012B7047000000487047380300204E
:100D70007546FFF7F9FFAE4605006946534620F079
:100D80000700854618B020B5FFF73EFABDE82040C1
:100D90004FF000064FF000074FF000084FF0000B37
:100DA00021F00701AC46ACE8C009ACE8C009ACE8EA
:100DB000C009ACE8C0098D46704710B50446AFF3D2
:100DC00000802046BDE81040FFF709BA4FF0013C13
:100DD00050F8042B51F8043B9A4221D1A2EB0C03AA
:100DE000934313EACC1317D150F8042B51F8043B6A
:100DF0009A4215D1A2EB0C03934313EACC130BD107
:100E000050F8042B51F8043B9A4209D1A2EB0C0391
:100E1000934313EACC13DBD04FF00000704700BFC0
:100E2000D01A01BAB1FA81F101F0180122FA01F0E9
:100E3000CB40C1F12001DBB2C0B2C01A2CFA01F3E1
:100E4000D11A914311EAC311E6D170475FEA400C11
:100E500008BF91F0000F4FEA8C234FEAC12243EA0A
:100E600051514FEA1C5018BF00F5F0404FEA3000D6
:100E700018BF41F000415FEA6C5C00F02980BCF1D2
:100E8000FF3F08BF40F080407047130C06BF1204BC
:100E90004FF0100C4FF0000C130E04BF12020CF1B7
:100EA000080C130F04BF12010CF1040C930F04BFC4
:100EB00092000CF1020CD30F04BF52000CF1010C94
:100EC00011464FF00002A0F11F00A0EB0C0070478C
:100ED00011F0004F08BF704731F000413FF4D5AF2B
:100EE0000B0C06BF09044FF0100C4FF0000C0B0E5A
:100EF00004BF09020CF1080C0B0F04BF09010CF12F
:100F0000040C8B0F04BF89000CF1020CCB0F04BF43
:100F100049000CF1010CCCF12003A0EB0C0022FAEB
:100F200003F302FA0CF241EA030100F101007047F9
:100F300020F07F4C80EA030023F07F47ACEB0703EF
:100F400003F57C5300F0004003F1FF032DE98049D5
:100F50004FEA154B09B44FEA144325EA0B4E24EA35
:100F600003480FF2042606EB132749083E785FEA90
:100F7000320203FB0667C7F5000707FB06F64FEAD8
:100F800054374FEAD64606F1020607FB066CCCF151
:100F9000005C4FEA1C472CEA074C07FB06F40CFBED
:100FA00006F504EB15464FEA961634BF00204FF0C5
:100FB00000404FEAD13706FB07FC4FEA1C4C0CFB04
:100FC0000BF7D21B03FB0CF761EB07010CFB0EF7D1
:100FD000B0EB074072EB17420CFB08F734BFA2EBF3
:100FE0000742B2EB074261EB17414FEA0C444FEA6C
:100FF000910706FB07FC4FEA1C4C0CFB0BF7B0EB10
:10100000C74072EB573203FB0CF734BFA2EBC74269
:10101000B2EBC74261EB57310CFB0EF7B0EBC700E8
:1010200072EB57720CFB08F734BFA2EBC702B2EBAE
:10103000C70261EB5771039F4FEA816141EA921148
:1010400004EBCC044FEAD1374FEA826206FB07FC7F
:1010500042EA90124FEA80604FEA1C4C0CFB0BF7FF
:10106000D21B03FB0CF761EB07010CFB0EF7B0EB97
:10107000074072EB17420CFB08F734BFA2EB0742A4
:10108000B2EB074261EB17414FEA8C554FEA9107EB
:1010900004EB9C2406FB07FC4FEA1C4C0CFB0BF7F3
:1010A000B0EBC74072EB573203FB0CF734BFA2EB37
:1010B000C742B2EBC74261EB57310CFB0EF7B0EB06
:1010C000C70072EB57720CFB08F734BFA2EBC702E4
:1010D000B2EBC70261EB577115EB4C254FEA81610A
:1010E00041EA92114FEA82624FEAD13742EA901206
:1010F00006FB07FC44F100044FEA80604FEA1C4CF9
:101100000CFB0BF7D21B03FB0CF761EB07010CFB8D
:101110000EF7B0EB074072EB17420CFB08F734BF39
:10112000A2EB0742B2EB074261EB174115EB1C152E
:101130004FEA813141EA92414FEA823242EA9042DB
:101140004FEA80304FEA0C7644F1000448EA03434A
:101150004EEA0B484FF0000EB2EB080C71EB0307A0
:1011600024BF624639464EEB0E0E4FF0000B0018BE
:10117000524149414BEB0B0BB2EB080C71EB0307EF
:101180007BF1000B24BF624639464EEB0E0E4FF04A
:10119000000B0018524149414BEB0B0BB2EB080C12
:1011A00071EB03077BF1000B24BF624639464EEB1F
:1011B0000E0E51EA020718BF46F0010616EB0E7636
:1011C00055F1000254F1000103D5BDE88901BDE8E5
:1011D0000088BDE88901BDE80048B619524141EBDD
:1011E0000101A3F10103704780807F7E7D7C7B7AC3
:1011F0007978777676757473727171706F6E6E6DC3
:101200006C6C6B6A6A696868676666656464636368
:1012100062616160605F5F5E5E5D5D5C5C5B5B5AEE
:101220005A5959585857575656555555545453535B
:1012300052525251515050504F4F4F4E4E4D4D4DB6
:101240004C4C4C4B4B4B4A4A4A4949494848484701
:10125000474747464646454545444444444343433F
:101260004342424242414141002B26D4770021D0E3
:101270001CB54FEA370703B44FF010004FF01001D0
:101280004FF000000FBCBDE810400BF1010BBBF1AB
:10129000010F08BF5FEA170722BF12F1010211F127
:1012A00001014FF0004143F1000300F0004043EA28
:1012B00000007047F9D35708DAE746EA064613F10B
:1012C000400F4FEA16461FDD13F1200FDFBF164314
:1012D0000A46002120335B42C8D0C3F1200746EA0A
:1012E000064602FA07F74FEA164646EA0706C3F132
:1012F000200722FA03F201FA07F721FA03F14FF06F
:10130000000342EA0702B1E746EA020646EA064659
:101310004FEA164646EA0106BCBF46EA0646360CC8
:101320004FF000034FF000024FF000019EE72DE95F
:10133000C048934630B491E8380007C831EA400C01
:1013400048BF34EA430C03D5FFF7F2FDFFF78CFFEB
:10135000F0BCBDE800882DE9C048934630B491E860
:10136000380007C810F0804F08BF13F0804F03D13A
:1013700000F005F8FFF778FFF0BCBDE8008820F02A
:101380007F4780EA030023F07F4C07EB0C03A3F5B3
:101390007C5300F00040A3F1FE0392F0000F00F038
:1013A000B38095F0000F00F077802DE901494FEAF6
:1013B00011404FEA144621EA004800FB06FC24EAEB
:1013C000064708FB06F607FB08F800FB07F718EBD3
:1013D00006484CEB164C4FEA124B18EB07484FEA05
:1013E00015464CEB174022EA0B4E0BFB06FC25EA98
:1013F00006470EFB06F607FB0EFE0BFB07F71EEB80
:10140000064E4CEB164C4FF000061EEB074E4CEB15
:10141000174B18EB0B0840F1000018EB0E0B58EBC4
:10142000000840F100008F1A4FF000013CBFC94393
:10143000661B14BFB5EB040C00213CBFC943F61B6F
:101440004FEA17444EEA8E0E27EA04454FEA1C473E
:1014500004FB07622CEA074C05FB07F70CFB05F6BB
:1014600004FB0CFC16EB074642EB174216EB0C464E
:1014700042EB1C421BEB060658EB0202414146EAD6
:101480009E0601D5BDE80189B619524141EB010123
:10149000A3F10103BDE801894FEA14454FEA114762
:1014A00024EA054621EA074C05FB07F406FB07F78B
:1014B0000CFB06F105FB0CFC11EB074144EB174458
:1014C0004FEA124711EB0C4144EB1C4422EA074C53
:1014D00005FB07F206FB07F70CFB06F605FB0CFC09
:1014E00016EB074642EB174216EB0C4642EB1C4547
:1014F0006A1854F1000148BF7047B619524141EBD8
:101500000101A3F10103704795F0000F37D04FEAB6
:1015100011424FEA144721EA024624EA074C02FB33
:1015200007F106FB07F70CFB06F402FB0CFC14EBBF
:10153000074441EB17414FEA154714EB0C4441EBCC
:101540001C4125EA074C02FB07F506FB07F70CFBDD
:1015500006F602FB0CFC16EB074645EB174516EBAF
:101560000C4645EB1C42121951F1000148BF70476F
:10157000B619524141EB0101A3F1010370474FEA53
:1015800014454FEA114724EA054621EA074C05FBBA
:1015900007F106FB07F70CFB06F24FF0000605FB10
:1015A0000CFC12EB074241EB174112EB0C4251EBE2
:1015B0001C4148BF7047921841EB0101A3F10103A0
:1015C0007047FEE708B50121102000F059FD4FF4E7
:1015D000FF50ADF8000010208DF8030003208DF8B7
:1015E00002006946014800F089F908BD0010014079
:1015F00010B500F001FA00F04BFE0648818C0BB2EA
:10160000018C0AB2818B008BBDE8104009B200B298
:1016100000F0B0BC740000200F4A002040F6AC512E
:1016200050611061D162D06030320C4B506110615A
:10163000D162D0603032C2E904304FF07E53D360C3
:10164000D162303250611061D16202F13001D0605C
:101650008860C86088617047CC0000200AD7233CAE
:10166000704700002DE9F041202000F07FF80028AD
:101670004FD0294C29486168491C6160012902D07A
:10168000022904D040E0012100F0DDFF3CE0002110
:10169000054600F0D8FF206804F02EF906460F46F4
:1016A000284600F0FEFF04F03EF900221C4B03F038
:1016B000CBFF3B46324603F017FF03F0E3FEA0608A
:1016C00004F01EFC4FF0FF3204F057FF0022154BD0
:1016D00004F03CF903F0D6FEE060284600F0E1FF9C
:1016E000014611A0FEF7C8FD15A02168FEF7C4FD54
:1016F000E06804F005FC02460B4614A0FEF7BCFDB2
:10170000002060602060A884BDE8F041202000F047
:1017100027B8BDE8F0810000640000200010004000
:1017200000408F4000E0744054494D5F476574436A
:101730006F756E746572203A202564200A000000DF
:10174000636F6E74203A202564200A006C656E6712
:10175000746854656D70203A202566206D6D0A000E
:10176000014908607047000014040140064A014620
:1017700000201268044B0A4014331B680B4202D04D
:10178000002A00D001207047000401402DE9F041FB
:10179000012188B0084600F073FC01210F2000F001
:1017A00063FC01210C2000F06BFC01214C4800F08F
:1017B000F3F801214B4800F0EFF848208DF80F00B6
:1017C00003258DF80E504FF40040474EADF80C0045
:1017D00003A9304600F092F80820444FADF80C0001
:1017E00003A9384600F08AF8C024ADF80C4003A9DC
:1017F000304600F083F8ADF80C4003A9384600F0FD
:101800007DF8ADF80C5003A9304600F077F84FF69C
:10181000FF700024ADF81400ADF81040F504ADF8E9
:101820001640ADF8124004A9284601F009F9304EDF
:1018300004A9304601F004F92E4F04A9384601F0FE
:10184000FFF8DFF8B48004A9404601F0F9F804205D
:10185000ADF800000A20ADF802000120ADF8040048
:10186000ADF80640ADF808406946284600F028FF6C
:101870006946304600F024FF6946384600F020FFF4
:101880006946404600F01CFF0121284600F0DBFEBF
:101890000121304600F0D7FE0121384600F0D3FE8A
:1018A0000121404600F0CFFE0A231A4603212846B4
:1018B00000F0DEFE0A231A460321304600F0D8FE6F
:1018C0000A231A460321384600F0D2FE0A231A469C
:1018D0000321404600F0CCFE08B0BDE8F0810000D6
:1018E000000230000003180000080140000C014015
:1018F0000004004000080040000C0040F0B5CC7827
:10190000002204F00F03E40601D58C7823430C7801
:101910004FF00F0C14F0FF0F4FF0010E1BD00568B5
:101920000E880EFA02F42640A64210D196000CFA58
:1019300006F725EA070703FA06F5CE783D43282E79
:1019400002D0482E02D002E0446100E00461521C43
:10195000082AE5D305600A88FF2A1CD944680022BA
:1019600002F108060EFA06F50E882E40AE420ED1A0
:1019700096000CFA06F7BC4303FA06F7CE783C4310
:10198000282E00D14561CE78482E00D10561521C29
:10199000082AE5D34460F0BDF0B5144C002801DA04
:1019A000E36900E06368450D2E0185B2C0F301577D
:1019B000B540C0F30342032F05D0C6020AD5032663
:1019C0009640B34307E023F07062636823F07063CE
:1019D000636002E0AB4343F0706201B12A43002828
:1019E00001DAE261F0BD6260F0BD0000000001407C
:1019F000416170470161704710B5022000F096FB0D
:101A0000074C40426080032000F090FBE0800420FF
:101A100000F08CFBA080052000F088FB208010BD2A
:101A200074000020FEE7000010B5054C2021204680
:101A3000FFF7DEFF2046BDE810404021FFF7DABF88
:101A40000010014010B5054C20212046FFF7D2FFC1
:101A50002046BDE810404021FFF7CABF00100140FA
:101A600010B5064C4FF400612046FFF7C1FFA114EA
:101A70002046BDE81040FFF7BDBF00000010014048
:101A800010B5064C4FF400612046FFF7B3FFA114D8
:101A90002046BDE81040FFF7ABBF0000001001403A
:101AA0007CB514460D4606466B4606223B2168204F
:101AB00000F0AAF900280BD1BDF8001049BA318016
:101AC000BDF8021049BA2980BDF8041049BA218036
:101AD0007CBD7CB514460D4606466B460622432166
:101AE000682000F091F900280BD1BDF8001049BA28
:101AF0003180BDF8021049BA2980BDF8041049BAF6
:101B000021807CBD70B50D4C0025C4F880510C4877
:101B1000016821F0F0010160016841F030010160CD
:101B2000C4F88451022004F5C07401F0DBFC0120EC
:101B30002060022001F0D6FC256070BD00802142AB
:101B4000000C014038B50121082000F099FA03206B
:101B5000ADF8000010218DF80310064C8DF802003E
:101B600069462046FFF7CAFE03212046FFF742FFE1
:101B700038BD0000000C014070B50D4C0026C4F8C3
:101B800080610C48016821F0F0010160016841F0BA
:101B9000300101600125C4F88451022004F5C074AD
:101BA00001F0A0FC2560022001F09CFC266070BDC5
:101BB00000802142000C01402DE9F0478146174882
:101BC0000024016821F0F0010160016841F080010A
:101BD0000160134E254627464FF00108C6F8807174
:101BE000022001F07FFCC6F880816006040ED6F862
:101BF000040108B1641CE4B2022001F073FC6D1C06
:101C0000EDB2082DEAD3B9F1000F04D0FFF77AFF47
:101C10002046BDE8F087FFF7AFFFF9E7000C014071
:101C2000008021422DE9F04105461248016821F06B
:101C3000F0010160016841F0300101600E4E0027A3
:101C4000C6F880713C464FF00108E809C6F88401E7
:101C50006806050EC6F88081022001F043FCC6F834
:101C60008071022001F03EFC641CE4B2082CECD32D
:101C7000BDE8F081000C01400080214270B50D48A4
:101C8000016821F0F0010160016841F0300101605C
:101C9000094C0120C4F88401C4F88001022004F535
:101CA000C07401F01FFC00256560022001F01AFCE1
:101CB000256070BD000C0140008021420E4810B527
:101CC000016821F0F0010160016841F0300101601C
:101CD0000A4C0020C4F88001C4F88401022004F5F5
:101CE000C07401F0FFFB012020606060BDE810407F
:101CF000022001F0F7BB0000000C014000802142EF
:101D000070B513480024016821F0F00101600168FA
:101D100041F0800101600F4D0126C5F88461022069
:101D200001F0E0FBC5F88061022001F0DBFB07E079
:101D3000641CE4B2FA2C03D9FFF7C0FF012070BD88
:101D4000D5F804010028F3D1C5F8800170BD00006A
:101D5000000C01400080214210B5FFF7F3FE802106
:101D60006B2000F0BFF8642001F0A2FB00216B2083
:101D700000F0B8F8032000F081F8002000F079F8B6
:101D8000322000F098F80021382000F0ABF8002154
:101D90006A2000F0A7F80021232000F0A3F880219A
:101DA000372000F09FF8752000F011F8682801D066
:101DB000012010BD01216B2000F094F800216C205F
:101DC00000F090F8322000F076F8002010BD10B539
:101DD0000446FFF753FFD020FFF724FFFFF790FFE3
:101DE0002046FFF71FFFFFF78BFFFFF747FFD120CC
:101DF000FFF718FFFFF784FF0020FFF7DDFE044622
:101E0000FFF75CFF204610BD2DE9F0411C4615464A
:101E10000F460646FFF732FF7006000EFFF702FF7F
:101E2000FFF76EFF20B1FFF749FF0120BDE8F08109
:101E30003846FFF7F7FEFFF763FFFFF71FFF0120AC
:101E400000EB4600C0B2FFF7EDFEFFF759FF08E0D8
:101E5000012D0CD00120FFF7AFFE6D1E04F8010B21
:101E6000EDB2002DF4D1FFF729FF0020DEE70020BE
:101E7000F1E7C006010E1C2000F034B8C006010EC8
:101E80001B2000F02FB8BC2801D3012110E06228EC
:101E900001D302210CE02A2801D3032108E01428F1
:101EA00001D3042104E00A2801D3052100E0062122
:101EB0001A2000F017B810B504464FF47A70844227
:101EC00001D9044602E0042C00D20424B0FBF4F053
:101ED000401EC1B2192000F005F86008BDE81040AE
:101EE000FFF7D1BF70B50C460546FFF7C7FED020FF
:101EF000FFF798FEFFF704FF50B92846FFF792FE60
:101F0000FFF7FEFE2046FFF78DFEFFF7F9FE18B142
:101F1000FFF7D4FE012070BDFFF7D0FE002070BD9A
:101F20002DE9F0411D4616460C460746FFF7A6FE72
:101F30007806000EFFF776FEFFF7E2FE60B9204656
:101F4000FFF770FEFFF7DCFE00240CE0285DFFF7D2
:101F500069FEFFF7D5FE20B1FFF7B0FE0120BDE816
:101F6000F081641CE4B2B442F0D3FFF7A7FE002076
:101F7000F5E7FEE72DE9F0411C4615460E46070041
:101F800002D4FFF77DFD03E0FFF76AFD784207B258
:101F9000002E02DBFFF756FD03E0FFF745FD704220
:101FA00006B2002D02DB00F00DF903E000F0FAF8B4
:101FB000684205B2002C02DB00F0E6F803E000F016
:101FC000D5F8604204B2B1B2012000F0BBFAA1B270
:101FD000022000F0B7FAA9B2032000F0B3FAB9B2B8
:101FE000BDE8F041042000F0ADBA704730B50F23D2
:101FF000C27801780125F2B1144A126801F1E0219A
:1020000002F4E062C2F5E062120AC2F10404D340B5
:102010004278A24084781C401443220181F80024B5
:10202000007800F01F018D404009800000F1E020A1
:10203000C0F8005130BD01F01F0085404809800004
:1020400000F1E020C0F8805130BD00000CED00E050
:102050000249084302490860704700000000FA0581
:102060000CED00E070470000044A0029D16901D05E
:10207000014300E08143D16170470000001002403D
:10208000044A0029916901D0014300E08143916134
:10209000704700000010024030B5204A5168204BC4
:1020A00011F00C0103D0042901D0082901D00360EC
:1020B00012E05168536801F470114FF0020413F4F8
:1020C000803F04EB914102D053689B0301D5154B2F
:1020D00000E0134B5943016051680F2303EA1111CB
:1020E000114B5C5C0168E14041605468072505EADA
:1020F00014241C5D21FA04F48460546805EAD42495
:102100001B5DD940C1605268032303EA9232064B3B
:102110001B1F9A5CB1FBF2F1016130BD001002405F
:1021200000127A0000093D00AC00002000210228C6
:1021300007D003280BD004280BD005280BD0002093
:1021400070474FF08042B2F9240091847047044AEE
:1021500002E0044A00E0044AB2F90000118070472E
:102160002404004024080040240C004010B5054C15
:1021700080212046FFF73CFCA1152046BDE8104019
:10218000FFF738BC0010014010B5054C80212046F7
:10219000FFF730FCA1152046BDE81040FFF728BC32
:1021A0000010014010B5064C4FF400712046FFF7B7
:1021B0001FFC21152046BDE81040FFF71BBC0000A6
:1021C0000010014010B5064C4FF400712046FFF797
:1021D00011FC21152046BDE81040FFF709BC0000A6
:1021E00000100140704700000CB500222648009204
:1021F0000192016841F4803101604FF4A0630168ED
:1022000001F4003101910099491C0091019911B923
:1022100000999942F3D10168890333D501210191D5
:102220001A490A6842F010020A600A6822F00302A2
:102230000A600A6842F002020A604168416041682F
:102240004160416841F480614160416821F47C1142
:102250004160416841F4E8114160016841F08071DA
:10226000016001688901FCD5416821F003014160EA
:10227000416841F0020141604168C1F381010229D6
:10228000FAD10CBD01920CBD0010024000200240AA
:102290002DE9F047224E708803F0DCFFF16804F06E
:1022A000B9F8204C054620606768394604F0BCF850
:1022B000E16803F0E3FFA061C4E9015781462946C4
:1022C000206903F0DBFF8046E0610121284604F02D
:1022D00082F9294604F09EF8394603F03DFE616913
:1022E00003F0CCFF054620624146484603F034FE29
:1022F000294603F031FE0546606A03F093FF294644
:1023000003F02AFE03F052FF6062F061E16A81424D
:1023100002DD4942814200DBF161BDE8F087000047
:10232000740000202C0100204FF0E02104280869EF
:1023300003D020F004000861704740F00400FAE781
:10234000704700000F4810B5016841F001010160BD
:1023500041680D4A1140416001680C4A114001601A
:10236000016821F480210160416821F4FE0141608F
:102370004FF41F018160FFF737FF05494FF0006000
:10238000086010BD001002400000FFF8FFFFF6FEDD
:1023900008ED00E070B5048C24F001040484058B82
:1023A000048C4FF6FF7606EA0313134325F0F3057A
:1023B0000E4A2B4390420ED00D4A90420BD0B0F102
:1023C000804F08D00B4A904205D00B4A904202D071
:1023D0000A4A904202D124F0020201E024F00A02EB
:1023E0000A4342F001010383018470BD002C0140C7
:1023F000003401400004004000080040000C004090
:10240000F0B5048C24F010040484078B048C4FF680
:10241000FF7527F4734705EA03333B4305EA0222BD
:102420001A43114B05EA011698420ED00F4B984201
:102430000BD0B0F1804F08D00D4B984205D00D4B1A
:10244000984202D00C4B984205D124F02001314330
:1024500041F0100104E024F0A0030B4343F010010D
:1024600002830184F0BD0000002C014000340140D3
:102470000004004000080040000C0040F0B589B0A6
:10248000012140F60400FFF7FBFD4FF47065ADF845
:102490001C5018208DF81F000320284E8DF81E00B8
:1024A00007A93046FFF72AFA0024ADF8164040F29B
:1024B000E730ADF81400ADF812404720204FADF8DA
:1024C00010008DF8184004A9384600F0B9FA6020D1
:1024D000ADF800000120ADF802000420ADF80400C2
:1024E000ADF80840ADF80A40ADF80C40ADF8064034
:1024F000ADF80E40ADF81C5007A93046FFF7FEF9C5
:102500006946384600F07AF96946384600F0B6F96F
:102510006946384600F0F2F96946384600F02CFA70
:102520000121384600F08FF80121384600F07EF88E
:102530000121384600F091F809B0F0BD00080140D3
:10254000002C01400A4A012808D0022809D003289B
:102550000AD004280BD1104600F046BA104600F00D
:102560003DBA104600F03CBA104600F03BBA704746
:10257000002C014010B5094C0121204600F093F8D1
:10258000002809D0064920460A68521C0A60BDE8A6
:102590001040012100F054B810BD000000100040B0
:1025A0006400002010B5084C0121204600F07BF8A3
:1025B000002807D0FFF71CF82046BDE81040012195
:1025C00000F03EB810BD0000001400407FB5044686
:1025D00001212020FFF748FDADF804404FF4E15001
:1025E000ADF800000024104DADF80640ADF80240F3
:1025F0006946284600F024FA01221146284600F0D8
:10260000F5F80121284600F01EF837208DF80C005F
:102610008DF80D408DF80E4001208DF80F0003A8B5
:10262000FFF7E4FC7FBD0000001400400029018892
:1026300002D041F0800101E021F08001018070476B
:10264000C943018270470029018802D041F001018D
:1026500001E021F0010101807047002930F8441F9A
:1026600002D041F4004101E0C1F30E010180704746
:1026700070B50589048B068C25F007050D434FF6D0
:10268000FC410C4040F201110C434FF6FF7101EA8E
:10269000031126F02206114331430581048301848E
:1026A00070BD808C704702460020138A92890B42CD
:1026B00002EA010202D0002A00D001207047000087
:1026C0002DE9F84F0D4604460888434FDFF80CC14A
:1026D000DFF80C81DFF80C914988AA882B894FF02C
:1026E000804A48B3042830D04FF6FF760828934636
:1026F00034D0208C9E4620F480502084A38B208CE4
:1027000006EA0132009223F4734306EA0B221A43CD
:1027100006EA0E331343BC420AD0644508D0544540
:1027200006D0444504D04C4502D02F4A944245D1AE
:1027300020F40050009943E02046FFF72BFEE98883
:102740002046BDE8F84F00F052B92046FFF758FE8A
:10275000E9882046BDE8F84F00F051B9208C20F4FC
:1027600080702084B4F81CE0208C06EA031306EA8B
:1027700001222EF0F30E43EA0B0343EA0E0300920C
:10278000BC420AD0644508D0544506D0444504D024
:102790004C4502D0144A944203D120F400700099B1
:1027A00001E020F42060084340F48070A38320847B
:1027B000E9882046BDE8F84F00F02DB920F402402A
:1027C000084340F48050A3832084E9882046BDE874
:1027D000F84F00F028B90000002C014000340140FF
:1027E0000004004000080040000C0040002A8289DC
:1027F00001D00A4300E08A438281704730B5028CE1
:1028000022F001020284028C8388048B22F00202EF
:1028100024F073050C882C430D8915434A882A43FC
:10282000114DA8420BD0114DA84208D0104DA8421E
:1028300005D0104DA84202D00F4DA8420DD122F074
:1028400008054A8923F440732A4322F004058A8844
:102850002A438D891D43CB892B4383800483C988F8
:102860008186028430BD0000002C0140003401400C
:1028700000400140004401400048014070B5028C16
:1028800022F010020284028C8388048B0D8824F4C9
:10289000E6464FF6FF7404EA052535430E8922F01B
:1028A000200204EA061616434A8804EA021232435A
:1028B000104EB04202D0104EB04215D122F0800628
:1028C0004A8923F4406304EA0212324322F04006AC
:1028D0008A8804EA021232438E8904EA86061E437D
:1028E000CB8904EA8303334383800583C988018746
:1028F000028470BD002C01400034014070B5028C90
:1029000022F480720284028C8388848B0D8824F0E8
:10291000730425430E894FF6FF7422F4007204EA13
:10292000062616434A8804EA02223243104EB04279
:1029300002D0104EB04215D122F400664A8923F429
:10294000405304EA0222324322F480668A8804EA71
:10295000022232438E8904EA06161E43CB8904EA1A
:102960000313334383808583C9888187028470BDC4
:10297000002C01400034014070B5028C22F48052DA
:102980000284058C8288838B0C8823F4E6464FF6FC
:10299000FF7303EA0424344325F400560D8903EA47
:1029A000053535434E8803EA06362E43094DA842C5
:1029B00002D0094DA84205D122F480458A8903EA54
:1029C00082122A4382808483C988A0F8401006843A
:1029D00070BD0000002C014000340140818670472A
:1029E0000187704781877047A0F840107047028BBD
:1029F00022F00C020283028B0A4302837047028B8F
:102A000022F440620283028B4FF6FF7303EA012136
:102A10000A4302837047828B22F00C028283828BEE
:102A20000A4382837047828B22F440628283828BC6
:102A30004FF6FF7303EA01210A43828370470000C7
:102A400030B502881B4C1C4DA0420DD0A8420BD0C3
:102A5000B0F1804F08D0194B984205D0184B9842DE
:102A600002D0184B984203D122F070034A881A43CF
:102A7000154B984206D0154B984203D022F4407370
:102A8000CA881A4302808A8882850A880285A04201
:102A90000AD0A84208D00E4A904205D00D4A904272
:102AA00002D00D4A904201D1097A0186012181822A
:102AB00030BD0000002C0140003401400004004003
:102AC00000080040000C00400010004000140040CE
:102AD00000400140004401400048014070B5154CE1
:102AE00040F22551204600F067F800280ED020461D
:102AF00000F0F0F8104AC1B21088030406D4440470
:102B00004FF0000306D50A2901D0138070BD40F4B0
:102B100000400DE00D2909D0C0F30D04074D401C05
:102B200080B229551080C728EFD870BD40F480408E
:102B3000108070BD00380140A0000020A8010020D6
:102B400070B5154C40F22551204600F035F80028AC
:102B50000ED0204600F0BEF8104AC1B2108803041F
:102B600006D444044FF0000306D50A2901D013808F
:102B700070BD40F400400DE00D2909D0C0F30D04F4
:102B8000074D401C80B229551080C728EFD870BD72
:102B900040F48040108070BD00480040A00000203C
:102BA000700200200029818902D041F4005101E027
:102BB00021F400518181704770B501F01F05012695
:102BC0000024C1F3421306FA05F2012B0FD0022BA9
:102BD0000FD0838A4FEA11210088134206FA01F6CA
:102BE00000EA060001D000B10124204670BD8389AF
:102BF000F0E7038AEEE710B5C1F3421301F01F04BA
:102C00000121A140012B07D0022B07D01430002A4C
:102C1000026805D00A4304E00C30F8E71030F6E70C
:102C20008A43026010BD000030B50446008A85B0BA
:102C30000D464CF6FF710840E98801432182A089C6
:102C40004EF6F3110840A9882A8911436A89024384
:102C50001143A181A08A4FF6FF410840A989014391
:102C6000A1826846FFF718FA1948844201D10398F7
:102C700000E00298A189090400EBC00101EB0010FB
:102C8000296801D5490000E08900B0FBF1F0642219
:102C9000B0FBF2F109010B096FF018056B4300EB73
:102CA0008300A3891D044FF0320306D503EBC00057
:102CB000B0FBF2F000F0070005E003EB0010B0FB02
:102CC000F2F000F00F000843208105B030BD000095
:102CD000003801408088C0F308007047FEE74900D3
:102CE00050EAC12018BF04204A0D18BF40F001006F
:102CF00040F2FF72B2EB515F08BF40F002000128C2
:102D000008BF052070472DE9F0414F1E00EBC701B9
:102D10000446D1E9000115461E4637F006020DD0E3
:102D20002A46334602F012FE7F1E04EBC703D3E9A6
:102D3000002302F0D9FB37F00602F1D1022F25D093
:102D4000042F13D0062F18BFBDE8F0812A46334662
:102D500002F0FCFDD4E90A2302F0C6FB2A46334602
:102D600002F0F4FDD4E9082302F0BEFB2A46334604
:102D700002F0ECFDD4E9062302F0B6FB2A46334606
:102D800002F0E4FDD4E9042302F0AEFB2A46334608
:102D900002F0DCFDD4E9022302F0A6FB2A4633460A
:102DA00002F0D4FDD4E90023BDE8F04102F09CBB61
:102DB000012203F0E2BB02F097BB0022134610464B
:102DC000114602F041BC0000024A0020110703F046
:102DD000D4BB000001FDFFFF30380A2801D20120DA
:102DE00070470020704770472DE9FE4F80460F4620
:102DF0000025684601F038F800246FF00F0AE94614
:102E0000012658F8240057F82410401A00D54042F3
:102E100003F008FA514603F0DEFB59F8241011F0D4
:102E2000FF4F0BD003F000F94FF07E5103F0FCFA96
:102E3000094920F00040884205DC07E007490844C2
:102E40000749884202D306FA04F00543641C032CA8
:102E5000D7DB2846BDE8FE8F295C0F3E666666C15B
:102E60009A99D9002DE9F04D8D4F21F0004A86B096
:102E700005460C46BA452ADBAAEB070028430AD0D0
:102E80008848824501DC1AD1CDB106B02846BDE89C
:102E9000F04DFFF78DBF844A844B284602F056FD63
:102EA00007460E46824A834B2846214602F04EFDD5
:102EB00006B03A463346BDE8F04D02F015BB01209E
:102EC000FDF772FB06B0BDE8F04DFFF776BF7A481C
:102ED000824542DABAF1795F0BDA2846FFF7FFFE46
:102EE000042808BFFFF770FF284606B02146BDE85A
:102EF000F08D2A460B46104602F028FD8346024616
:102F00006E480E460B4606217844FFF7FCFE5A46F3
:102F1000334602F01BFD804669488A465A463346CE
:102F200004217844FFF7EFFE5A46334602F00EFDC7
:102F300000223B4602F0D8FA02460B464046514674
:102F400002F082FB2A46234602F000FD06B02A4624
:102F50002346BDE8F04D02F0C7BA284624F00041F0
:102F600000223D463B4602F0EFFD4FF0FF3203F0FA
:102F700004FB0646024653480F460B46062178449A
:102F8000FFF7C1FE32463B4602F0E0FCCDE900010E
:102F90004D4832463B4604217844FFF7B4FE3246A2
:102FA0003B4602F0D3FC00222B4602F09DFA8346FA
:102FB00002913046394602F0C3F9804643480D4637
:102FC000504517DCDDE900015A46029B02F03CFB4C
:102FD00042462B4602F0BAFC42462B4602F084FAE7
:102FE000012203F0CAFA304A304B02F09FFE304A09
:102FF000304B4CE04FF0000A52460B46404602F080
:1030000073FACDE9031052462B461046194602F0DA
:103010009DFC32463B4602F097FDDDE9033202F0AB
:1030200013FB06460F46DDE900015A46029B02F0FB
:103030000BFB8346009101223046394603F09DFA8E
:10304000194A1A4B02F080FD06460F4601224046FF
:10305000294603F092FA5A46009B02F077FC32466A
:103060003B4602F063FE06460F46012250462946C3
:1030700003F083FA0E4DDFF858802A46434602F0EB
:1030800063FD32463B4602F05FFD2A46434602F0AE
:103090005BFD002CD8BF81F0004106B0BDE8F08D8B
:1030A0000000F03F0000F07F075C143326A6913C3F
:1030B000182D4454FB21F93F0000E03FA4430000D9
:1030C000BA4300002E430000444300003333EF3F77
:1030D000FB21E93F2DE9F84F04460D4621F0004061
:1030E00000917349814211DC7249884201DC06D1AA
:1030F0002CB120462946BDE8F84FFFF759BE6E486F
:10310000002DCCBF6D496E49BDE8F88F6D498142F5
:1031100011DD6D498142D8BF4FF0FF366DDD20468D
:103120002946FFF7DCFD042808BFFFF74DFE2046C7
:103130002946BDE8F88F6549654F25F00045814275
:1031400033DD6449814219DD002632464FF0804369
:103150002046294602F0C8F980468A4601222046C8
:10316000294603F00AFA00223B4602F0DFFD424600
:10317000534602F069FA04460D463EE0012600225D
:10318000BA463B462046294602F0AEF980460F4635
:10319000002253462046294602F0C8FD42463B46DF
:1031A00002F052FA04460D4627E04B4981421BDDEE
:1031B000DFF828A10226002253462046294602F0C5
:1031C000C5FB00223B4602F08FF980460F460022E5
:1031D00053462046294602F0A9FD42463B4602F0EE
:1031E00033FA04460D4608E0032622462B4600200B
:1031F0003B4902F029FA04460D4622462B4610466A
:10320000194602F0A3FB8B46824602460B4602F0AB
:103210009DFB07460246334888460B460621784404
:10322000FFF771FD52465B4602F090FB82462E4846
:103230008B463A46434605217844FFF764FD3A46FB
:10324000434602F083FB02460B46002E5046594689
:103250000CDA02F049F922462B4602F077FB01B066
:1032600022462B46BDE8F04F02F06EBC02F03CF95E
:1032700022462B4602F06AFB1C4A7A4402EBC60344
:10328000D3E9002302F052FD22462B4602F04EFD08
:10329000174A7A4402EBC603D3E9002302F054FC38
:1032A000009A002AB8BF81F00041BDE8F88F000005
:1032B000000010440000F07F182D4454FB21F93F1A
:1032C000FB21F9BF0000DC3F0000203E0000F33F7F
:1032D0000000F03F0000E63F008003400000F83FA0
:1032E0000000F0BF4641000004410000A240000081
:1032F0006A4000002DE9F04D9446CCF1000423F023
:1033000000464CEA0404524F46EAD4749A46884672
:1033100021F00042BC4206D8454240EA050442EA98
:10332000D474BC4204D9BDE8F04D6246FFF743BDFA
:10333000AAF14055A5F17F6555EA0C040BD0022493
:1033400004EAAA74434DDFF810E144EAD87452EA63
:10335000000B04D00CE0BDE8F04DFFF7BBBE002C25
:1033600014BF012CBDE8F08D022C30D0032C32D0DC
:1033700056EA0C0B0AD0BE4220D1BA4209D126F03F
:10338000804622F080423346114617E000291ADBBE
:1033900025E0DFF8C8B0FB44002C04BFDBE90001E6
:1033A000BDE8F08D012C02BFDBE9000181F0004196
:1033B000BDE8F08D022C0AD0032C0CD0BA4212D1F9
:1033C000B8F1000F0BDA23482549BDE8F08D2846F7
:1033D0002449BDE8F08D28467146BDE8F08D1D48B2
:1033E0002149BDE8F08D921B12153C2AC4BF194833
:1033F0001D490EDCBAF1000FBEBF12F13C0F0020D8
:10340000014606DB624602F01FF921F00041FFF79A
:1034100061FE002C08BFBDE8F08D012C04BF81F0D7
:103420000041BDE8F08D114A114B022C07D002F08B
:103430007DFC2A46BDE8F04D0A4B02F077BC02F055
:1034400075FC2A46BDE8F04D064B02F07DBB00003E
:103450000000F07F182D4454FB2109C0FE3F0000FE
:10346000FB21F9BFFB210940FB21F93F075C143325
:1034700026A6A13C10B56FF00400FEF755FF0948E1
:1034800009490068B0FBF1F00849C0B200EB400206
:103490000870C2EBC0104FF6FF7202EAC00048800D
:1034A00010BD00001800002000127A009C000020CF
:1034B0000B49498848434FF0E021486100238B6164
:1034C000086940F0010008610869C20701D0C00323
:1034D000FAD5086920F0010008618B61704700008F
:1034E0009C0000200B49097848434FF0E0214861D7
:1034F00000238B61086940F0010008610869C20778
:1035000001D0C003FAD5086920F0010008618B6181
:10351000704700009C00002008B560B120208DF8A5
:10352000000028208DF8010030208DF8020038209E
:103530008DF8030004E0A32204216846FCF7ACFFE9
:103540006A46042140F69E2001F066FE01F02AFB47
:1035500008BD00003EB5044602208DF80000CA20D8
:103560008DF80100E3208DF8020009208DF803009A
:103570006A460421682001F04FFEA3208DF8000068
:10358000610609D5C0218DF80110C8218DF80210FF
:10359000C2218DF8031005E08DF801008DF80200BE
:1035A0008DF8030014F4C07F09D0C4218DF80410F5
:1035B000CC218DF80510C6218DF8061005E08DF898
:1035C00004008DF805008DF806008DF808008DF8D0
:1035D00007008DF809006A460A2140F6A72001F08D
:1035E0001BFEA0074FF0D80503D020208DF8000067
:1035F00001E08DF800506A46012140F6B62001F046
:103600000BFEA00601D5012000E0002000F090F89C
:1036100014F4C07F1ED0E0050AD5B2208DF800005A
:103620008B208DF80100B6208DF802009B2009E068
:10363000B0208DF8000080208DF80100B4208DF8B6
:10364000020090208DF803006A46042140F6A22073
:1036500001F0E2FDE0074FF40B6323D0F8208DF872
:1036600000006A460121184601F0D6FDFA21072024
:1036700000F03AFB072000F005FB012000F022FBE0
:10368000642000F0C5FB4FF4FA7000F0D1FBC821B4
:10369000254800F0BFFA282000F0D4FA0A2000F0F4
:1036A000E1FA06E08DF800506A460121184601F063
:1036B000B3FDA00703D5D9208DF8000001E08DF8F7
:1036C00000506A46012140F23D7001F0A5FD6007FF
:1036D00001D5012000E0002000F046F8E00601D509
:1036E000012000E00020FFF717FF104D44F0080014
:1036F000688101F057FA0020A873600601D5062002
:10370000A87314F4C07F02D0A87B801DA87314F0A6
:10371000140F02D0A87B1030A873A00702D0A87B9A
:10372000001DA87300203EBD09E3CA02BC000020B2
:103730000EB54FF4976308B105A000E007A007C8D5
:103740008DE807006A460921184601F065FD0EBDA7
:10375000B8AAB38DB4980D355D000000B8AAAAAA26
:10376000B088C3C5C700000008B560B1C0208DF89F
:103770000000C2208DF80100C4208DF80200C62090
:103780008DF8030004E08B2204216846FCF784FED8
:103790006A46042140F6982001F03EFD01F002FA4D
:1037A00008BD0000C8234FF48062024940F6F6309D
:1037B00001F0D8B8A46600082DE9FF4F89B016467D
:1037C000DDE916520024DFF834810F4681462C8053
:1037D000A24698F80E00694601F072F94FF0FF3BDF
:1037E00018B158460DB0BDE8F08FB8F80A0010F0D7
:1037F000140F3CD0009909BA21F0FF0C9DF803107A
:103800004CEA010CC6F800C0019909BA21F0FF0387
:103810009DF807100B43736002999DF80B2009BABD
:1038200021F0FF011143B160039A9DF80F4012BAD5
:1038300022F0FF022243F2604FEA2C4609141B14C7
:1038400012147643494303FB036302FB021119443C
:103850001024A1F17061B1F1007F04D901F0A2F947
:10386000A5F800A0BDE7298841F4807129804106B0
:103870006A460ED51119A41D0B885BBA3B804B8894
:103880005BBA7B80898849BAB980298841F00801F0
:10389000298010F4C07F11D01119A41D0B885BBAC8
:1038A000A9F800304B885BBAA9F80230898849BA78
:1038B000A9F80410298841F070012980800718D0E8
:1038C0001444E07800F0C00500F03F016078C007C4
:1038D00007D0C80801F00701D8F80020491C02B140
:1038E00090476078000704D5D8F8041009B1A809FA
:1038F00088470C9800F080FD002073E7BC00002092
:103900002DE9FF41044603A800F0E2FEBDF80C00DB
:10391000420CC3032F48018901F003004D0754F8FE
:10392000200000D54042C1F3C1058E0654F8255051
:1039300000D56D42C1F38116C90554F8264000D563
:103940006442A0FB0367C11701FB037100FB021077
:10395000810041EA9670A5FB0367E91701FB03713B
:1039600005FB02118D0045EA9671A4FB0367E5177C
:1039700005FB037304FB0232930043EA9672030EC5
:103980008DF80030030C8DF80130030A8DF80230F9
:103990008DF80300080E8DF80400080C8DF8050062
:1039A000080A8DF80600100E8DF80800100C8DF82E
:1039B0000900100A8DF80A008DF807108DF80B2009
:1039C0006A460C214FF4257001F026FC04B0BDE8D6
:1039D000F0810000BC00002030B5044613A185B082
:1039E00007C98DE807004FF0FF35C82C16D8C8204E
:1039F000B0FBF4F1491E080A8DF80C008DF80D108B
:103A000003AA022140F2162001F006FC30B96A46F2
:103A10000C2140F6C12001F0FFFB10B1284605B093
:103A200030BD054884810020F9E70000FEF2ABC4F8
:103A3000AAF1DFDFBBAFDFDFBC000020F8B5304903
:103A4000098901F0030250F822404A0700D5644278
:103A5000C1F3C10250F822308A0600D55B42C1F39F
:103A6000811250F82220C80500D55242254984FB16
:103A70000140850045EA947083FB014382FB0121EC
:103A8000950F45EA8105010E8DF80010010C8DF8A7
:103A90000110010A8DF80210A40F8DF8030044EA0A
:103AA00083046A4604214FF4747001F0B5FB4FF0B3
:103AB000FF3688B9200E8DF80000200C8DF801002B
:103AC000200A8DF802008DF803406A4604214FF465
:103AD000757001F0A1FB08B13046F8BD280E8DF8D5
:103AE0000000280C8DF80100280A8DF802008DF8DE
:103AF00003506A4604214FF4767001F08DFBF8BD47
:103B0000BC00002009E3CA022DE9FF4104463CA0A5
:103B100002AB006802903BA0006803903AA00668E0
:103B20003AA0056804F00300195C8DF80010C4F396
:103B3000C1015A5C8DF80120C4F381129B5C8DF8A1
:103B4000023003AB185C8DF80400585C8DF805005A
:103B5000985C8DF806006A46032140F2264001F089
:103B60005BFB4FF0FF37E0BB01AA032140F22A4084
:103B700001F052FBA8BBCDE9006560070BD59DF8AD
:103B8000000040F001008DF800009DF8040040F0B6
:103B900001008DF80400A0060BD59DF8010040F04F
:103BA00001008DF801009DF8050040F001008DF83E
:103BB0000500E0050BD59DF8020040F001008DF8EE
:103BC00002009DF8060040F001008DF806006A46EC
:103BD00003214FF4886001F01FFB10B901AA0321F3
:103BE00000E004E040F2314001F016FB18B1384625
:103BF00004B0BDE8F081064804810020F8E7000029
:103C00004CCD6C000CC92C0036567600264666005A
:103C1000BC0000204FF47A7290FBF2F008B54843E4
:103C2000010E8DF80010010C8DF80110010A8DF8BD
:103C300002108DF803006A4604214FF4AE7001F0C3
:103C4000EBFA08BD0521B0FBF1F008B5010A8DF8CB
:103C500000108DF801006A4602214FF4AD7001F0AA
:103C6000DBFA08BD0521B0FBF1F008B5010A8DF8BB
:103C700000108DF801006A4602214FF4AC7001F08B
:103C8000CBFA08BD08B500218DF80010C10702D09D
:103C900030218DF80010810705D59DF8001041F006
:103CA0000C018DF80010400705D59DF8000040F08C
:103CB00003008DF800006A4601214FF4A47001F062
:103CC000ABFA08BD08B560B1042800D90420401E35
:103CD0008DF800006A46012140F24F1001F09CFA75
:103CE00008BD0120F3E700002DE9FC41054640072F
:103CF0004FF0FF367CD0B1F5C86F79D8084602F096
:103D0000A9FA3E4902F090F9074601A800F0C2FC6A
:103D10009DF80400022806D004280DD008282ED0D3
:103D2000102865D134E00E21384602F054FC02F030
:103D300059FA84B2324907E00D21384602F04BFCB3
:103D400002F050FA2F4984B2384602F097FA02F096
:103D500049FA210A8DF8001080B28DF80140010A5D
:103D60008DF802108DF80300E8076C4620D022463B
:103D700002214FF4EA7001F04FFAC8BB11E00C21A8
:103D8000384602F028FC02F02DFA84B21E49DBE727
:103D90000B21384602F01FFC02F024FA84B21B49C2
:103DA000D2E7A21C02214FF4927001F035FAF8B963
:103DB000A8070DD56A4602214FF4EC7001F02CFAE9
:103DC000B0B9A21C02214FF4947001F025FA78B921
:103DD000680710D56A4602214FF4EE7001F01CFA14
:103DE00030B9A21C02214FF4967001F015FA10B1FF
:103DF0003046BDE8FC810020FBE70000000048439E
:103E0000000040460000C045000040450000C0449E
:103E10000521B0FBF1F008B5010A8DF800108DF80E
:103E200001006A4602214FF4EF7001F0F5F908BD78
:103E30000521B0FBF1F008B5010A8DF800108DF8EE
:103E400001006A4602214FF4ED7001F0E5F908BD6A
:103E500004490A885206FCD5024AC1B2121D1180DB
:103E600070470000004800402DE9FC470546254802
:103E70006B46042240680D210078FDF7C5FF10B1A4
:103E80000720BDE8FC879DF800001C2101EAD00254
:103E90009DF80300DFF87090C0F301131A438DF80A
:103EA00004209DF80120C0F3810301EAD2021A43E5
:103EB0008DF805209DF8022000F0030001EAD201F0
:103EC00001430024114F8DF80610A04601AE305D6D
:103ED00010B145F8249009E045F824800CE055F82D
:103EE0002400394602F0CAF945F82400305D401E2E
:103EF00010F0FF003055F2D1641CE4B2032CE6D37D
:103F00000020BEE72C0000207B14AE3E1D5A843FEB
:103F10002DE9FE4F05460120C14E8DF800004FF0FF
:103F200000088DF8018030680C461746817C706867
:103F30006B4602220078FDF7F3FF4FF0FF3A0028AE
:103F40007AD1C820FFF7B4FA8DF8008030686B464C
:103F50000122C17B70680078FDF7E2FF0028EFD1F5
:103F600030686B460122417970680078FDF7D8FF10
:103F70000028E5D130686B460122817C70680078AA
:103F8000FDF7CEFF0028DBD130686B460122C17DF2
:103F900070680078FDF7C4FF0028D1D130686B4607
:103FA0000122017970680078FDF7BAFF0028C7D1B7
:103FB0004FF00C098DF8009030686B4601220179B2
:103FC00070680078FDF7ACFF002835D10F20FFF7AF
:103FD0006FFAB06A6B460122407A8DF800003068B3
:103FE000817870680078FDF79BFF002824D1B06AC3
:103FF0006B460122007A8DF80000306841787068C5
:104000000078FDF78DFF002873D1B06A807A0FB178
:1040100040F0E0008DF8000030686B4601228179A5
:1040200070680078FDF77CFF002862D12FB1B06A7C
:10403000C07A40F0E00001E04AE018208DF800006E
:1040400030686B460122C17970680078FDF768FF1F
:10405000F0BB17B1C820FFF72BFA40208DF8000005
:1040600030686B460122017970680078FDF758FFCF
:1040700070BB78208DF8000030686B4601224179D2
:1040800070680078FDF74CFF10BB3220FFF710FA84
:104090008DF80080306847466B4641797068012290
:1040A0000078FDF73DFF98B931687068B046897AAD
:1040B00000786B460222FDF7A7FE48B9BDF8000064
:1040C000AF6040BAB0FBF9F06F60C6B22F6000E09D
:1040D0000FE0A76067602760002739E0D8F800107C
:1040E000D8F804006B46C97A00780C22FDF78CFEE4
:1040F00010B15046BDE8FE8FBDF80000236840BAFD
:1041000002B2BDF802001A4440BA01B2BDF8040080
:104110002260626840BA11446160A16800B208443C
:10412000A060BDF806002B6840BA02B2BDF80800D6
:104130001A4440BA01B2BDF80A002A606A6840BA5F
:1041400011446960A96800B208447F1CFFB2A860EE
:10415000B742C3D328688322C117090441EA10413A
:1041600000040023FCF763F832460023FCF75FF8F5
:10417000286068688322C117090441EA10410004DD
:104180000023FCF754F832460023FCF750F868602F
:10419000A8688322C117090441EA104100040023E2
:1041A000FCF745F832460023FCF741F8A860206888
:1041B0004FF40065C117090441EA104100042A4682
:1041C0000023FCF734F832460023FCF730F8206077
:1041D00060682A46C117090441EA1041000400231F
:1041E000FCF725F832460023FCF721F86060A06850
:1041F0002A46C117090441EA104100040023FCF7D4
:1042000016F832460023FCF712F8A060002802DD01
:10421000A0F5803001E000F58030A060002069E763
:104220002C0000202DE9F84F82462F4889460025B2
:1042300040686B46032200780D21FDF7E5FD10B1C3
:104240000720BDE8F88F9DF80000002400F01F0053
:104250008DF800009DF801006F4600F01F008DF8FA
:1042600001009DF802004FF0010800F01F008DF8DA
:1042700002005AF8241059F82400081A00D54042C8
:1042800001F0D0FF6FF00F0102F0A5F90646385D8E
:10429000E0B1164ADFF858B004E05946104601F084
:1042A000EDFF0246385D401E10F0FF003855F4D196
:1042B0001146304601F0B8FE4FF07E5102F0B4F8DE
:1042C0000C4920F00040884205DC07E00A483044F1
:1042D000B0F1D97F02D908FA04F00543641C032C1D
:1042E000C7DB2846ADE700002C0000200000C841D5
:1042F00054E3853F295C0F3E0000E0BE00B5024656
:1043000000F00DF80346D01C00F009F843EAC003A2
:10431000901D00F004F843EA801080B200BD90F9CF
:104320000010002902DD4FF00000704702DA4FF064
:104330000400704790F90110002902DD4FF00100E0
:10434000704702DA4FF00500704790F9020000282C
:1043500002DD4FF00200704702DA4FF006007047AE
:104360004FF00700704700004FF4FA764FF4A0605A
:10437000FDF76EFEFEF782F87000FEF727F9FDF7F5
:1043800005FAFDF71FF9FDF747F9FFF773F84FF44A
:10439000E13000F0FBFFFDF7DFFC00F029F9104CE5
:1043A000104D0F4A1432111F081F00F053F880B946
:1043B0000B4A121D911E881EFDF772FB084A0A3235
:1043C000911E881EFDF785FB04F10C0007C801F063
:1043D00031F82A88314604A0FBF74EFFE1E70000E0
:1043E0000000002076000020504F494E543A2564CA
:1043F0002C25640A00000000704700002DE9F04100
:10440000134D20F00104002695F8240010B100207F
:10441000BDE8F081A87A4FF0FF3838B120402F7CFA
:104420002874A04200D0464624B901E04046EFE798
:10443000287D40B1012000F059FF3CB100F0B2FBF3
:1044400020B12F74F2E7002000F050FF3046DFE784
:104450002C0000202DE9F74F8EB00CA906A8CDE95D
:1044600000010BAB02AA09A907A8FFF7A5F918B12B
:10447000012011B0BDE8F08FBDF81800C0057DD552
:10448000029801F0CFFE6FF01D04214602F0A3F860
:104490008146039801F0C6FE214602F09CF8804652
:1044A000049801F0BFFE214602F095F806460598F3
:1044B00001F0B8FE214602F08EF8824601214846FE
:1044C00002F089F80746314601F0D8FE04464FF065
:1044D0004041404601F0D2FE0546514601F0CEFE75
:1044E000214601F039FD01F00BFDFEF7BBFC4FF05A
:1044F000663B5A463D4B01F029FA00F0C3FF0E9986
:1045000008600121304602F066F83146009001F063
:10451000B5FE04462846414601F0B0FE214601F0B2
:1045200083FF4FF07E5101F017FD01F0E9FC0446D6
:104530000D463846414601F0A1FE07465146009817
:1045400001F09CFE394601F007FD01F0D9FC22463E
:104550002B46FEF7CFFE5A46244B01F0F7F900F048
:1045600091FF0F9908605146084601F087FE074603
:104570003146084601F082FE054600E034E041463F
:10458000084601F07BFE04464946084601F076FEE7
:10459000214601F0E1FC294601F046FF394601F0D1
:1045A00043FF01F0ADFC04460D465146484601F07C
:1045B00065FE07463146404601F060FE394601F08F
:1045C000CBFC012102F007F801F09AFC22462B46B1
:1045D000FEF790FE5A46054B01F0B8F900F052FF85
:1045E00010990860002044E7022042E766A64C408C
:1045F00010B5FDF7A7FA00F0F1F808B10A2010BDD8
:10460000782000F0ADFD10F0FF0F01D0012010BDAB
:104610007820FFF7F3FE10F0FF0F01D0022010BD4D
:10462000642000F061FD10F0FF0F01D0032010BDE9
:10463000FFF7B8F810F0FF0F01D0042010BD1448A8
:10464000FFF75CFEFFF760FA10F0FF0F01D00520C6
:1046500010BD40F27310FEF77DFF10F0FF0F01D088
:10466000062010BD6420FFF7B7F910F0FF0F01D04E
:10467000072010BD00F0FAFD08B1082010BD012090
:1046800000F058FC10F0FF00F8D0092010BD000029
:10469000580000200D4A517A41B1012908D0022961
:1046A0000FD003290FD04FF0FF307047022100E0F8
:1046B00004210170D17C11B1017849000170002002
:1046C00070470821F5E71021F3E700002C000020D7
:1046D0000F4A517A41B1012909D0022911D0032989
:1046E00012D04FF0FF3070474FF4804101E041F6A7
:1046F0009C710180D17C11B10188490801800020A2
:1047000070474FF48051F4E74FF40061F1E7000087
:104710002C0000200B49097A39B1012907D0022960
:104720000AD003290BD0002103E0FA2101E04FF465
:10473000FA710180002070474FF47A71F9E74FF465
:10474000FA61F6E72C0000200A49097A41B10129F3
:1047500008D002290AD003290AD04FF0FF30704751
:10476000054900E005490160002070470449FAE767
:104770000449F8E72C0000200000034300008342B6
:1047800033330342333383410C49C97A072913D2A7
:10479000DFE801F01204060A0C0E1000BC2100E054
:1047A00062210180002070472A21FAE71421F8E7EE
:1047B0000A21F6E70521F4E70021F2E72C000020AA
:1047C000054991F8242012B14FF0FF307047C98994
:1047D00001800020704700002C0000202DE9FC41E2
:1047E0004C4C80208DF8000020686B460122817CB3
:1047F00060680078FDF794FB4FF0FF37002832D156
:104800006420FEF755FE00258DF8005020686B46A9
:104810000122817C60680078FDF782FB002870D15E
:1048200020686B460622817D60680078FDF7ECFA0F
:10483000002866D19DF805009DF80310C007400FC1
:1048400001F0010140EA41019DF801004FF001062D
:1048500000F00100014309D0012905D0022915D03B
:104860002DA0FBF709FD4CE0E67410E020686B46D4
:104870000122C17860680078FDF7C6FA40BB9DF858
:10488000000010F00F0020D0042822D0E574FF2093
:1048900004F80A0F4FF6FF7104F8020C04F8010C3B
:1048A0006070A180A0712072A67026766576E57290
:1048B000A572E56025616561A576E576A5834FF46F
:1048C000FA6000F073FB18B907E01D48FBF7D4FC51
:1048D00017E01CA0FBF7D0FCC6E7022000F088FA26
:1048E00078B92A2000F0CAFB58B9322000F0FCFB4E
:1048F00038B90020FFF782FD18B9002000F0ACFAAB
:1049000010B13846BDE8FC81002000F029FC0020F1
:10491000F8E700002C000020556E737570706F7200
:1049200074656420736F6674776172652070726F4E
:1049300064756374207265762025642E0A00000079
:104940003474000848616C662073656E736974691D
:1049500076697479207061727420666F756E642E4A
:104960000A0000002DE9FF4FDFF898A0054685B04A
:104970009AF82500914688464FF0FF3BC0BBB8F13E
:10498000000F35D000241FE0281B102800DD102068
:1049900086B208EB04073A463146204600F03CFC5C
:1049A00030BB6A463146204600F0D2F800BB38469C
:1049B00032466946FBF744FD20B16FF0010009B0B3
:1049C000BDE8F08FA01984B2AC42DDD34FEA1920C4
:1049D0008DF810008DF81190DAF80000544604AB01
:1049E000817EDAF8040002220078FDF799FA08B116
:1049F0005846E4E7012084F825000898E084002068
:104A0000DDE700002C0000202DE9F84304464FF0BC
:104A1000FF39282844D80727284D00267CB10120DB
:104A200000F0FAFA20208DF800004FF00108012C68
:104A300017D0052C18D88DF8018005201FE0002024
:104A400000F0EAFA8DF800608DF8017028686B4676
:104A50000222817C68680078FDF762FA00BB2E753F
:104A600029E08DF80160E8E7142C04D802208DF8C5
:104A700001000A2003E003208DF80100142000F05B
:104A8000FDFA9DF801006B4607EB80108DF80100E0
:104A900028680222817C68680078FDF741FA10B12D
:104AA0004846BDE8F8830820A8722E7385F8148064
:104AB0000020FFF7A3FC0020F3E700002C000020FB
:104AC0002DE9F843214E0546174696F824008946FD
:104AD0004FF0FF3890B3B07A80B330686B46022253
:104AE000817A70680078FDF78FF938BBBDF8000057
:104AF00044BAAC4202D2002038701FE0706841888E
:104B0000B4EB510F11D9316800786B46497C012212
:104B1000FDF77AF990B99DF80000C00605D500F0C0
:104B200041F86FF00100BDE8F8833068EAB24B4607
:104B3000C17A70680078FDF767F908B14046F2E77E
:104B4000B4FBF5F0401E38700020ECE72C0000208C
:104B5000F8B517000D464FF0FF341FD0104EB17A54
:104B6000E1B1010A8DF80010C0B28DF801004119C1
:104B700070684289914211D8316800786B46097E8D
:104B80000222FDF7CDF948B93068EAB23B46417DD3
:104B900070680078FDF738F9002800D02046F8BD8D
:104BA0002C000020F8B5554D4FF0FF36A87A0028AC
:104BB0007ED000248DF8004028686B460122C17B1E
:104BC00068680078FDF7ACF9002871D128686B4659
:104BD0000122417968680078FDF7A2F9002867D1C1
:104BE00028686B460122017968680078FDF798F91A
:104BF00000285DD195F82400E0B30C208DF800006A
:104C000028686B460122017968680078FDF788F909
:104C1000002871D13220FEF74BFCC0208DF8000037
:104C2000A87AC00702D0E0208DF8000028686B4603
:104C30000122017968680078FDF772F900285BD1DC
:104C4000687C18B102208DF8000001E08DF800406A
:104C500028686B460122C17B68680078FDF760F91F
:104C600030BB8DF8004028686B46012241796868A6
:104C700000783DE0FFE704208DF8000028686B46CF
:104C80000122017968680078FDF74AF980B9A87CAB
:104C900088B9A87AC0070ED060208DF80000286877
:104CA0006B460122017968680078FDF739F900E068
:104CB00022E008BB01E04020EFE73220FEF7F8FBDE
:104CC000687C18B101208DF8000001E08DF80040EB
:104CD00028686B460122C17B68680078FDF720F9DF
:104CE00050B92868054B0122417968681033007873
:104CF000FDF716F9002800D03046F8BD2C00002042
:104D00002DE9F047394E82468AB096F824000F46C6
:104D100020B1002000F00EF9012500E0002507A8D1
:104D2000FFF7F8FC06A8FFF7B5FC09A8FFF72CFD74
:104D300008A8FFF745FD96F80A9096F81080002421
:104D4000002239465046FFF7E3F810B1641C022CEC
:104D5000F6DB022C1AD00024012203A96846FFF7D3
:104D6000D7F810B1641C022CF6DB022C0ED003A97C
:104D70003846FEF739F8C7B269465046FFF752FA8F
:104D800010F0FF0F4FF0000402D002E0002403E017
:104D900001240FB944F00204FF2030727072F072E7
:104DA0004FF6FF71F181B072307401203073BDF89D
:104DB0001C0000F0FBF89DF8180000F019F8BDF891
:104DC000240000F05BF9BDF8200000F08DF94846A2
:104DD00000F0C6F94046FFF711FB15B1012000F0C5
:104DE000A9F80AB02046BDE8F08700002C0000209A
:104DF00038B5184C4FF0FF35A17A19B3022806D008
:104E0000042806D008280ED010281BD10DE0002061
:104E100000E008208DF80000607A9DF80010B0EBEB
:104E2000D10F04D005E01020F4E71820F2E70020AD
:104E300038BD20686B460122C17960680078FDF7B3
:104E40006FF808B1284638BD9DF80000C0086072B0
:104E5000EDE700002C000020F8B5354D0446A87C95
:104E6000A04201D10020F8BD31484FF0FF366B461B
:104E7000D0E900104FF001020979007834B3FCF753
:104E8000C3FF70BB9DF800006B4620F020008DF83A
:104E9000000028680122017968680078FDF740F871
:104EA000F8B90320FEF704FB02208DF8000095F806
:104EB000220078B382202BE028686B460122017D16
:104EC00068680078FDF72CF858B92EE0FCF79CFFD5
:104ED00038B9A87AC0079DF8000003D040F0200040
:104EE00002E00CE020F020008DF8000028686B46FE
:104EF0000122017968680078FDF712F808B13046A0
:104F0000F8BD0320FEF7D4FA95F8220000B1802006
:104F10008DF8000095F823000028CDD09DF8000002
:104F200040F030008DF80000C6E7AC749AE700004E
:104F30002C00002038B51C4C94F8241081421DD060
:104F4000002500B394F82500D0B1002000F0CEF980
:104F50000020FFF781FFE08C00F0C6F88DF80050CC
:104F600060686B46012200782321FCF7D9FF0120FD
:104F700084F8240000F0BAF9FFF714FE002038BDD1
:104F80004FF0FF3038BD002000F0B0F9207C8DF8E4
:104F9000000060686B46012200782321FCF7C0FF07
:104FA00084F82450E8E700002C00002038B5194CA4
:104FB0004FF0FF35A17A31B3FA2809D0B0F5FA7F66
:104FC00008D0B0F57A7F0FD0B0F5FA6F1BD10DE0A5
:104FD000002000E008208DF80000207A9DF80010E5
:104FE000B0EBD10F04D005E01020F4E71820F2E771
:104FF000002038BD20686B46012281796068007806
:10500000FCF78EFF08B1284638BD9DF80000C008A7
:105010002072EDE72C00002038B5174D044695F8B6
:105020002300A04201D1002038BD0CB1302000E0A7
:1050300000208DF80000A87C28B19DF8000040F009
:1050400002008DF8000095F8220028B19DF80000BC
:1050500040F080008DF8000028686B460122017D39
:1050600068680078FCF75CFF10B14FF0FF3038BD86
:1050700085F82340D7E700002C00002038B5194CF4
:105080004FF0FF35A17A31B3BC2801D3012010E0E5
:10509000622801D302200CE02A2801D3032008E073
:1050A000142801D3042004E00A2801D3052000E0DD
:1050B00006208DF80000E07A9DF80010884201D1AA
:1050C000002038BD20686B46012281786068007836
:1050D000FCF726FF08B1284638BD9DF80000E072B5
:1050E000EEE700002C000020F8B51C4D04464FF000
:1050F000FF37A87A28B395F8240010BB287D48B163
:105100002CB1282C03D8E0B2FFF77EFC24E000206D
:10511000FFF77AFC4FF47A76042C01D2042402E0E3
:10512000B44200D93446B6FBF4F0401E8DF80000BE
:1051300028686B460122417868680078FCF7F0FE29
:1051400008B13846F8BD9DF80000401CB6FBF0F0F1
:10515000E8814008FFF792FF0020F8BD2C000020F6
:10516000F8B5044610F0700F4FF0000601D0012092
:1051700004E014B18DF8006002E040208DF80000DA
:10518000244D6B4601222868817C68680078FCF712
:10519000C7FE4FF0FF3760BB9DF8000020F04000D5
:1051A00028738DF80060600602D404208DF800009A
:1051B000A00605D49DF8000040F002008DF8000024
:1051C000E00605D49DF8000040F001008DF80000D5
:1051D000200705D49DF8000040F038008DF800004D
:1051E00028686B460122C17C68680078FCF798FE4D
:1051F00010B1AE723846F8BD24B1082C02D00020A0
:10520000FFF70AFFAC722E753220FEF751F900202D
:10521000F8BD00002C000020F8B517000D464FF037
:10522000FF341FD0104EB17AE1B1010A8DF80010A1
:10523000C0B28DF80100411970684289914211D8BD
:10524000316800786B46097E0222FCF769FE48B996
:105250003068EAB23B46417D70680078FCF760FE3A
:10526000002800D02046F8BD2C00002010B588B0E2
:1052700002A905A8FFF744FD032802D0012008B0C9
:1052800010BD6846FFF760FA059800F0CBFF009963
:105290000C4600F0F3FF00F089FF0590069800F03F
:1052A000C1FF214600F0EAFF00F080FF069007985A
:1052B00000F0B8FF214600F0E1FF00F077FF079013
:1052C00005A8FEF7BBFB01A8FFF702FABDF8040032
:1052D0000299414302910399414303910499414347
:1052E00002A80491FEF70CFB0020C8E7F8B5134CA8
:1052F0000023224694F82460D2E900125D1E56B1C4
:1053000090B102200DE01078C97B6B460122FCF7BA
:1053100007FE60B90DE0A67A4EB128B1607C58B99D
:1053200001208DF80000EEE78DF80030EBE728460D
:10533000F8BD9DF8000060740020F8BD2C0000202E
:105340002DE9F04106460F4600F00AFC041E0D460A
:1053500018BF0120284320F00040C0F17F6000F119
:10536000E040C00F0ED0301C18BF0120384320F0A1
:105370000040C0F17F6000F1E040C00F04BF012099
:10538000FBF712F920462946BDE8F08170B50546C5
:10539000012186B08804FCF767FE01210820FCF794
:1053A0006FFE4FF48060ADF8100003248DF81240BA
:1053B00018201E4E8DF8130004A93046FCF79EFA03
:1053C000F014ADF8100004208DF8130004A9304645
:1053D000FCF794FA27208DF814008DF815408DF80D
:1053E000164001208DF8170005A8FCF7FFFD0020EE
:1053F000ADF80400ADF80600ADF80800ADF80C00FB
:105400000C200B4CADF80A00009569462046FDF7CC
:105410000BFC012240F225512046FDF7ECFB012157
:105420002046FDF7BFFB06B070BD0000000C014038
:105430000048004010B5104600F062FD0246BDE88D
:1054400010400B4601A0FAF717BF00007961773AC8
:105450002025660A0000000010B500290AD008784F
:10546000002807D005487844FBF7B0FC002801D09D
:10547000002010BD0248784410BD00003E2000000E
:105480003620000021F00042A2F16052B2F5801FE8
:1054900001F0004328BFD2F17F6C0BD95FEA001CFA
:1054A00043EAC20242EB507018BF704728BF20F099
:1054B00001007047B2F5801FBCBF184670474FEA25
:1054C000410C1CF5001F02D2084600F09EBF70B5CB
:1054D00000F0E6FA00000089FFF7F6BF4FF0004049
:1054E000A0F580007047000010B591EA030F48BF97
:1054F00083F0004300F12284841A71EB030C05D27F
:10550000121943EB0C03001B61EB0C01DFF824E1E3
:105510004FEA1154A4EB135C1EEA430F18BF9EEA36
:10552000445F73D023EA0E03DCF1200E21EA04511C
:1055300043F4801332D322FA0CFE10EB0E0023FA50
:105540000CFE41EB0E01CCF1200E03FA0EFE10EB27
:105550000E0051F10001B1F5801FCCF1200E32D2C6
:1055600001EB045112FA0EF2BDE8104058BF70472B
:10557000401C38BF5FEA420218BF7047002814BFC2
:1055800020F0010041F100014FEA410313F5001F33
:1055900038BF7047A1F1C04100F0D0BA012A43EBF7
:1055A0000302ACF1200CDCF11F0E32BF4FF0000EF5
:1055B00023FA0CF310EB030041EB0451B4EB115F41
:1055C000D0D0A1EB045101F5801149085FEA300009
:1055D00001EB04510ED350F1000038BF12FA0EFE59
:1055E00008D1BDE81040C9E7401C38BF5FEA42025D
:1055F000CAD1C3E7BDE810404FEA410313F5001FCD
:1056000038BF7047A1F1C04100F098BA9EEA445FEC
:1056100008D011EA5E0FBDE8104004BF01F0004160
:1056200000207047BDE8104070B500F039FA00BFA7
:1056300064FBBE3E0000E0FF02494FF0000000F0B6
:105640006ABF00BF0000F87F2DE9C04130B4DFF829
:10565000A0C23CEA111418BF3CEA131400F0EC801D
:1056600081EA03051CEA111444EAD57418BF1CEA48
:10567000131500F0C780A4EB05044FF0004545EA80
:10568000C12145EAC32341EA505143EA525304F190
:105690007F74994204F500344FEAC0204FEAC222D9
:1056A00008BF904200F09C804FEA13650FF240164D
:1056B000765D4FEA134506FB05F7C7F1807706FBD9
:1056C00007F74FEAD737A7FB03687642C8F580385B
:1056D000A7FB06CE38BFA8F1010807FB08E64FF08C
:1056E000000EA6FB028CE6FB03CEDCF1000CCEF133
:1056F000004E38BFAEF1010EA6FB0C584FF000076C
:105700004FF00005E6FB0E87A1FB08C6A0FB07CE05
:1057100016EB0E0645F10005E1FB076515F1E04EBD
:105720007EBFA4F580345FEA46066D4116F180071E
:1057300045F100054FEA17274FEA066647EA056775
:10574000A6F1DE46B6F1805F4FEA15251FD938462F
:1057500024F0010C05EBC471BCF1FE6F01EB0C11E0
:1057600002D8F0BCBDE8008124425CBF01F5801E78
:105770009EEAC47F02D4F0BCBDE80081244238D444
:10578000F0BCA1F1C041BDE8004100F0D7B94FEA3B
:10579000D22242EA43524FEAD323A7FB02864FEAC2
:1057A000D02040EA415007FB03661EEA0E0F4FEA85
:1057B000D12105FB026658BFA6EB0056B6EB00569A
:1057C0004FEA520E4EEAC37E18EB0E0E56EB530E06
:1057D000BDD518EB02085E417F1C55F10005B6E708
:1057E0004FF480154FF000074FF000064FF000080F
:1057F000ADE7F0BC4FF0000001F1C04101F0004105
:10580000BDE8008111EA0C1F0CEA131500D00CE072
:1058100013EA0C1F00F025804FF00000F0BC81EA75
:10582000030101F00041BDE80081F0BCBDE800418A
:1058300081EA030100F082B9F0BCBDE8004170B517
:1058400000F02EF9097EFC3E00F007B881EA030162
:105850004FF0000001F00041704781EA030100F0C1
:105860006DB9F0BCBDE800414FF000002149704720
:10587000FFFDFBF9F7F5F4F2F0EEEDEBE9E8E6E415
:10588000E3E1E0DEDDDBDAD8D7D5D4D3D1D0CFCD9C
:10589000CCCBCAC8C7C6C5C4C2C1C0BFBEBDBCBBD5
:1058A000BAB9B8B7B6B5B4B3B2B1B0AFAEADACABD0
:1058B000AAA9A8A8A7A6A5A4A3A3A2A1A09F9F9EAA
:1058C0009D9C9C9B9A99999897979695959493935C
:1058D000929191908F8F8E8E8D8C8C8B8B8A8989F3
:1058E0008888878786858584848383828281818076
:1058F0000000FF070000F87F10F0004248BF404260
:10590000B0FA80F310FA03F10AD0C3F11D0303F5D6
:1059100080634FEA415002EB035202EBD121704702
:105920004FF000007047B0FA80F310FA03F10AD08C
:10593000C3F11D0303F580634FEA41504FEA035260
:1059400002EBD12170474FF000007047DFF848C1EB
:1059500070B51CEA111E1EBF1CEA13159EEA0C0F3F
:1059600095EA0C0F00F06F8081EA030423EA4C13E0
:105970004EEAD47E21EA4C1141F4801143F48013A5
:10598000AE44A1FB024CA0FB0365AEF17F7E36194D
:1059900055EB0C05A1FB034C4CF10003A0FB021CD2
:1059A00016EB0C06654153F10003094218BF46F09F
:1059B000010613F4007F0BD14FEA03314FEA0530A3
:1059C000340341EA155140EA16506FF003020AE031
:1059D0004FEAC3214FEAC520F40241EA555140EA9B
:1059E00056506FF0020202EB2E4201EB025585EA9F
:1059F000CE710AD05FEA440C18BF24F0004450F185
:105A0000000041F1000120EAD47040F2FE7C6245C2
:105A100000D270BDA84214BF4FF080444FF0404404
:105A2000002E08BF0024BEF1806FA8BFA1F1C041C5
:105A3000BDE8704080F282804FF0000001F1C0416B
:105A400001F0004170479EEA0C0F0CEA131518BFD5
:105A500095EA0C0F06D04FF0000081EA030E0EF01D
:105A6000004170BD00F01CF88900013E00F007B84D
:105A700000F009B84FEA430C5FEA5C5C08D081EAA9
:105A8000030100F05BB84FEA410C5FEA5C5CF6D1C1
:105A90004FF00000014970470000FF070000F87F49
:105AA0000EF1020E2EF0030E5EF8046B364205D4A2
:105AB000012A43EB030515F5001F12D8012841EB1D
:105AC000010C1CF5001F0CD80ED14FEAD17C15F546
:105AD000001F0CEB4C0C0CF1020C08BF4CEBD37C00
